{
  "contractName": "Booking",
  "abi": [
    {
      "anonymous": false,
      "inputs": [
        {
          "indexed": true,
          "internalType": "uint256",
          "name": "serviceId",
          "type": "uint256"
        },
        {
          "indexed": true,
          "internalType": "address",
          "name": "userAddress",
          "type": "address"
        },
        {
          "indexed": false,
          "internalType": "uint256",
          "name": "bookingTime",
          "type": "uint256"
        },
        {
          "indexed": false,
          "internalType": "uint256",
          "name": "price",
          "type": "uint256"
        }
      ],
      "name": "BookingCreated",
      "type": "event"
    },
    {
      "constant": true,
      "inputs": [
        {
          "internalType": "uint256",
          "name": "",
          "type": "uint256"
        },
        {
          "internalType": "uint256",
          "name": "",
          "type": "uint256"
        }
      ],
      "name": "bookings",
      "outputs": [
        {
          "internalType": "uint256",
          "name": "serviceId",
          "type": "uint256"
        },
        {
          "internalType": "address",
          "name": "userAddress",
          "type": "address"
        },
        {
          "internalType": "uint256",
          "name": "bookingTime",
          "type": "uint256"
        },
        {
          "internalType": "uint256",
          "name": "price",
          "type": "uint256"
        }
      ],
      "payable": false,
      "stateMutability": "view",
      "type": "function"
    },
    {
      "constant": false,
      "inputs": [
        {
          "internalType": "uint256",
          "name": "_serviceId",
          "type": "uint256"
        },
        {
          "internalType": "uint256",
          "name": "_price",
          "type": "uint256"
        }
      ],
      "name": "bookService",
      "outputs": [],
      "payable": false,
      "stateMutability": "nonpayable",
      "type": "function"
    },
    {
      "constant": true,
      "inputs": [
        {
          "internalType": "uint256",
          "name": "_serviceId",
          "type": "uint256"
        }
      ],
      "name": "getBookings",
      "outputs": [
        {
          "internalType": "uint256[]",
          "name": "",
          "type": "uint256[]"
        },
        {
          "internalType": "address[]",
          "name": "",
          "type": "address[]"
        },
        {
          "internalType": "uint256[]",
          "name": "",
          "type": "uint256[]"
        },
        {
          "internalType": "uint256[]",
          "name": "",
          "type": "uint256[]"
        }
      ],
      "payable": false,
      "stateMutability": "view",
      "type": "function"
    }
  ],
  "bytecode": "0x608060405234801561001057600080fd5b50610765806100206000396000f3fe608060405234801561001057600080fd5b50600436106100415760003560e01c80632a85422214610046578063312c73b31461007e578063f40109951461010b575b600080fd5b61007c6004803603604081101561005c57600080fd5b810190808035906020019092919080359060200190929190505050610266565b005b6100b46004803603604081101561009457600080fd5b8101908080359060200190929190803590602001909291905050506103a9565b604051808581526020018473ffffffffffffffffffffffffffffffffffffffff1673ffffffffffffffffffffffffffffffffffffffff16815260200183815260200182815260200194505050505060405180910390f35b6101376004803603602081101561012157600080fd5b8101908080359060200190929190505050610413565b6040518080602001806020018060200180602001858103855289818151815260200191508051906020019060200280838360005b8381101561018657808201518184015260208101905061016b565b50505050905001858103845288818151815260200191508051906020019060200280838360005b838110156101c85780820151818401526020810190506101ad565b50505050905001858103835287818151815260200191508051906020019060200280838360005b8381101561020a5780820151818401526020810190506101ef565b50505050905001858103825286818151815260200191508051906020019060200280838360005b8381101561024c578082015181840152602081019050610231565b505050509050019850505050505050505060405180910390f35b61026e6106f2565b60405180608001604052808481526020013373ffffffffffffffffffffffffffffffffffffffff16815260200142815260200183815250905060008084815260200190815260200160002081908060018154018082558091505090600182039060005260206000209060040201600090919290919091506000820151816000015560208201518160010160006101000a81548173ffffffffffffffffffffffffffffffffffffffff021916908373ffffffffffffffffffffffffffffffffffffffff16021790555060408201518160020155606082015181600301555050503373ffffffffffffffffffffffffffffffffffffffff16837f06305cc4b9ada869f34253a9663739915d901b5b1fd528cb0ccf4c3327185fea4285604051808381526020018281526020019250505060405180910390a3505050565b600060205281600052604060002081815481106103c257fe5b9060005260206000209060040201600091509150508060000154908060010160009054906101000a900473ffffffffffffffffffffffffffffffffffffffff16908060020154908060030154905084565b6060806060806060600080878152602001908152602001600020805480602002602001604051908101604052809291908181526020016000905b828210156104f35783829060005260206000209060040201604051806080016040529081600082015481526020016001820160009054906101000a900473ffffffffffffffffffffffffffffffffffffffff1673ffffffffffffffffffffffffffffffffffffffff1673ffffffffffffffffffffffffffffffffffffffff168152602001600282015481526020016003820154815250508152602001906001019061044d565b5050505090506000815190506060816040519080825280602002602001820160405280156105305781602001602082028038833980820191505090505b5090506060826040519080825280602002602001820160405280156105645781602001602082028038833980820191505090505b5090506060836040519080825280602002602001820160405280156105985781602001602082028038833980820191505090505b5090506060846040519080825280602002602001820160405280156105cc5781602001602082028038833980820191505090505b50905060008090505b858110156106d8578681815181106105e957fe5b60200260200101516000015185828151811061060157fe5b60200260200101818152505086818151811061061957fe5b60200260200101516020015184828151811061063157fe5b602002602001019073ffffffffffffffffffffffffffffffffffffffff16908173ffffffffffffffffffffffffffffffffffffffff168152505086818151811061067757fe5b60200260200101516040015183828151811061068f57fe5b6020026020010181815250508681815181106106a757fe5b6020026020010151606001518282815181106106bf57fe5b60200260200101818152505080806001019150506105d5565b508383838399509950995099505050505050509193509193565b604051806080016040528060008152602001600073ffffffffffffffffffffffffffffffffffffffff1681526020016000815260200160008152509056fea265627a7a72315820f519dbfe60cf847b1ee3449baa0edc266e02365d53feea4ef49bce952ff9bf7b64736f6c63430005100032",
  "source": "// SPDX-License-Identifier: MIT\r\npragma solidity ^0.5.16;\r\n\r\ncontract Booking {\r\n    struct BookingDetails {\r\n        uint256 serviceId;\r\n        address userAddress;\r\n        uint256 bookingTime;\r\n        uint256 price;\r\n    }\r\n\r\n    mapping(uint256 => BookingDetails[]) public bookings; // serviceId => list of bookings\r\n\r\n    event BookingCreated(uint256 indexed serviceId, address indexed userAddress, uint256 bookingTime, uint256 price);\r\n\r\n    // Function to book a service\r\n    function bookService(uint256 _serviceId, uint256 _price) public {\r\n        BookingDetails memory newBooking = BookingDetails({\r\n            serviceId: _serviceId,\r\n            userAddress: msg.sender,\r\n            bookingTime: block.timestamp,\r\n            price: _price\r\n        });\r\n\r\n        bookings[_serviceId].push(newBooking);\r\n        emit BookingCreated(_serviceId, msg.sender, block.timestamp, _price);\r\n    }\r\n\r\n    // Function to get bookings for a specific service\r\n    function getBookings(uint256 _serviceId) public view returns (uint256[] memory, address[] memory, uint256[] memory, uint256[] memory) {\r\n        BookingDetails[] memory bookingList = bookings[_serviceId];\r\n        uint256 length = bookingList.length;\r\n\r\n        uint256[] memory serviceIds = new uint256[](length);\r\n        address[] memory userAddresses = new address[](length);\r\n        uint256[] memory bookingTimes = new uint256[](length);\r\n        uint256[] memory prices = new uint256[](length);\r\n\r\n        for (uint256 i = 0; i < length; i++) {\r\n            serviceIds[i] = bookingList[i].serviceId;\r\n            userAddresses[i] = bookingList[i].userAddress;\r\n            bookingTimes[i] = bookingList[i].bookingTime;\r\n            prices[i] = bookingList[i].price;\r\n        }\r\n\r\n        return (serviceIds, userAddresses, bookingTimes, prices);\r\n    }\r\n}",
  "sourcePath": "C:\\Users\\user\\Desktop\\TC\\starter_kit\\src\\contracts\\Booking.sol",
  "compiler": {
    "name": "solc",
    "version": "0.5.16+commit.9c3226ce.Emscripten.clang"
  },
  "schemaVersion": "3.4.16",
  "updatedAt": "2024-12-28T07:14:06.875Z",
  "networkType": "ethereum",
  "devdoc": {
    "methods": {}
  },
  "userdoc": {
    "methods": {}
  }
}