{
  "contractName": "ReviewSystem",
  "abi": [
    {
      "anonymous": false,
      "inputs": [
        {
          "indexed": true,
          "internalType": "uint256",
          "name": "serviceId",
          "type": "uint256"
        },
        {
          "indexed": true,
          "internalType": "address",
          "name": "reviewer",
          "type": "address"
        },
        {
          "indexed": false,
          "internalType": "string",
          "name": "comment",
          "type": "string"
        },
        {
          "indexed": false,
          "internalType": "uint8",
          "name": "rating",
          "type": "uint8"
        }
      ],
      "name": "ReviewAdded",
      "type": "event"
    },
    {
      "constant": true,
      "inputs": [
        {
          "internalType": "uint256",
          "name": "",
          "type": "uint256"
        },
        {
          "internalType": "uint256",
          "name": "",
          "type": "uint256"
        }
      ],
      "name": "reviews",
      "outputs": [
        {
          "internalType": "uint256",
          "name": "serviceId",
          "type": "uint256"
        },
        {
          "internalType": "address",
          "name": "reviewer",
          "type": "address"
        },
        {
          "internalType": "string",
          "name": "comment",
          "type": "string"
        },
        {
          "internalType": "uint8",
          "name": "rating",
          "type": "uint8"
        }
      ],
      "payable": false,
      "stateMutability": "view",
      "type": "function"
    },
    {
      "constant": false,
      "inputs": [
        {
          "internalType": "uint256",
          "name": "_serviceId",
          "type": "uint256"
        },
        {
          "internalType": "string",
          "name": "_comment",
          "type": "string"
        },
        {
          "internalType": "uint8",
          "name": "_rating",
          "type": "uint8"
        }
      ],
      "name": "addReview",
      "outputs": [],
      "payable": false,
      "stateMutability": "nonpayable",
      "type": "function"
    },
    {
      "constant": true,
      "inputs": [
        {
          "internalType": "uint256",
          "name": "_serviceId",
          "type": "uint256"
        }
      ],
      "name": "getReviews",
      "outputs": [
        {
          "internalType": "uint256[]",
          "name": "",
          "type": "uint256[]"
        },
        {
          "internalType": "address[]",
          "name": "",
          "type": "address[]"
        },
        {
          "internalType": "string[]",
          "name": "",
          "type": "string[]"
        },
        {
          "internalType": "uint8[]",
          "name": "",
          "type": "uint8[]"
        }
      ],
      "payable": false,
      "stateMutability": "view",
      "type": "function"
    }
  ],
  "bytecode": "0x608060405234801561001057600080fd5b50610f2c806100206000396000f3fe608060405234801561001057600080fd5b50600436106100415760003560e01c806366d8ea4d146100465780639d4a225514610062578063a7264f8814610095575b600080fd5b610060600480360361005b91908101906107da565b6100c8565b005b61007c600480360361007791908101906107b1565b61027e565b60405161008c9493929190610bad565b60405180910390f35b6100af60048036036100aa9190810190610841565b61057f565b6040516100bf9493929190610c5e565b60405180910390f35b60018160ff16101580156100e0575060058160ff1611155b61011f576040517f08c379a000000000000000000000000000000000000000000000000000000000815260040161011690610c3e565b60405180910390fd5b60008084815260200190815260200160002060405180608001604052808581526020013373ffffffffffffffffffffffffffffffffffffffff1681526020018481526020018360ff16815250908060018154018082558091505090600182039060005260206000209060040201600090919290919091506000820151816000015560208201518160010160006101000a81548173ffffffffffffffffffffffffffffffffffffffff021916908373ffffffffffffffffffffffffffffffffffffffff160217905550604082015181600201908051906020019061020392919061068e565b5060608201518160030160006101000a81548160ff021916908360ff1602179055505050503373ffffffffffffffffffffffffffffffffffffffff16837f9d30e2860da6b2b3097b8d53b1e8249f3aca41ee19cdfc8607a0e8942c54696f8484604051610271929190610c0e565b60405180910390a3505050565b606080606080600080600087815260200190815260200160002090506000818054905090506060816040519080825280602002602001820160405280156102d45781602001602082028038833980820191505090505b5090506060826040519080825280602002602001820160405280156103085781602001602082028038833980820191505090505b50905060608360405190808252806020026020018201604052801561034157816020015b606081526020019060019003908161032c5790505b5090506060846040519080825280602002602001820160405280156103755781602001602082028038833980820191505090505b50905060008090505b858110156105655786818154811061039257fe5b9060005260206000209060040201600001548582815181106103b057fe5b6020026020010181815250508681815481106103c857fe5b906000526020600020906004020160010160009054906101000a900473ffffffffffffffffffffffffffffffffffffffff1684828151811061040657fe5b602002602001019073ffffffffffffffffffffffffffffffffffffffff16908173ffffffffffffffffffffffffffffffffffffffff168152505086818154811061044c57fe5b90600052602060002090600402016002018054600181600116156101000203166002900480601f0160208091040260200160405190810160405280929190818152602001828054600181600116156101000203166002900480156104f15780601f106104c6576101008083540402835291602001916104f1565b820191906000526020600020905b8154815290600101906020018083116104d457829003601f168201915b505050505083828151811061050257fe5b602002602001018190525086818154811061051957fe5b906000526020600020906004020160030160009054906101000a900460ff1682828151811061054457fe5b602002602001019060ff16908160ff1681525050808060010191505061037e565b508383838399509950995099505050505050509193509193565b6000602052816000526040600020818154811061059857fe5b9060005260206000209060040201600091509150508060000154908060010160009054906101000a900473ffffffffffffffffffffffffffffffffffffffff1690806002018054600181600116156101000203166002900480601f0160208091040260200160405190810160405280929190818152602001828054600181600116156101000203166002900480156106715780601f1061064657610100808354040283529160200191610671565b820191906000526020600020905b81548152906001019060200180831161065457829003601f168201915b5050505050908060030160009054906101000a900460ff16905084565b828054600181600116156101000203166002900490600052602060002090601f016020900481019282601f106106cf57805160ff19168380011785556106fd565b828001600101855582156106fd579182015b828111156106fc5782518255916020019190600101906106e1565b5b50905061070a919061070e565b5090565b61073091905b8082111561072c576000816000905550600101610714565b5090565b90565b600082601f83011261074457600080fd5b813561075761075282610cd7565b610caa565b9150808252602083016020830185838301111561077357600080fd5b61077e838284610e68565b50505092915050565b60008135905061079681610ebb565b92915050565b6000813590506107ab81610ed2565b92915050565b6000602082840312156107c357600080fd5b60006107d184828501610787565b91505092915050565b6000806000606084860312156107ef57600080fd5b60006107fd86828701610787565b935050602084013567ffffffffffffffff81111561081a57600080fd5b61082686828701610733565b92505060406108378682870161079c565b9150509250925092565b6000806040838503121561085457600080fd5b600061086285828601610787565b925050602061087385828601610787565b9150509250929050565b600061088983836108d9565b60208301905092915050565b60006108a18383610abf565b905092915050565b60006108b58383610b71565b60208301905092915050565b60006108cd8383610b8f565b60208301905092915050565b6108e281610e1f565b82525050565b6108f181610e1f565b82525050565b600061090282610d43565b61090c8185610db9565b935061091783610d03565b8060005b8381101561094857815161092f888261087d565b975061093a83610d85565b92505060018101905061091b565b5085935050505092915050565b600061096082610d4e565b61096a8185610dca565b93508360208202850161097c85610d13565b8060005b858110156109b857848403895281516109998582610895565b94506109a483610d92565b925060208a01995050600181019050610980565b50829750879550505050505092915050565b60006109d582610d59565b6109df8185610ddb565b93506109ea83610d23565b8060005b83811015610a1b578151610a0288826108a9565b9750610a0d83610d9f565b9250506001810190506109ee565b5085935050505092915050565b6000610a3382610d64565b610a3d8185610dec565b9350610a4883610d33565b8060005b83811015610a79578151610a6088826108c1565b9750610a6b83610dac565b925050600181019050610a4c565b5085935050505092915050565b6000610a9182610d7a565b610a9b8185610e0e565b9350610aab818560208601610e77565b610ab481610eaa565b840191505092915050565b6000610aca82610d6f565b610ad48185610dfd565b9350610ae4818560208601610e77565b610aed81610eaa565b840191505092915050565b6000610b0382610d6f565b610b0d8185610e0e565b9350610b1d818560208601610e77565b610b2681610eaa565b840191505092915050565b6000610b3e601e83610e0e565b91507f526174696e67206d757374206265206265747765656e203120616e64203500006000830152602082019050919050565b610b7a81610e51565b82525050565b610b8981610e51565b82525050565b610b9881610e5b565b82525050565b610ba781610e5b565b82525050565b60006080820190508181036000830152610bc781876109ca565b90508181036020830152610bdb81866108f7565b90508181036040830152610bef8185610955565b90508181036060830152610c038184610a28565b905095945050505050565b60006040820190508181036000830152610c288185610a86565b9050610c376020830184610b9e565b9392505050565b60006020820190508181036000830152610c5781610b31565b9050919050565b6000608082019050610c736000830187610b80565b610c8060208301866108e8565b8181036040830152610c928185610af8565b9050610ca16060830184610b9e565b95945050505050565b6000604051905081810181811067ffffffffffffffff82111715610ccd57600080fd5b8060405250919050565b600067ffffffffffffffff821115610cee57600080fd5b601f19601f8301169050602081019050919050565b6000819050602082019050919050565b6000819050602082019050919050565b6000819050602082019050919050565b6000819050602082019050919050565b600081519050919050565b600081519050919050565b600081519050919050565b600081519050919050565b600081519050919050565b600081519050919050565b6000602082019050919050565b6000602082019050919050565b6000602082019050919050565b6000602082019050919050565b600082825260208201905092915050565b600082825260208201905092915050565b600082825260208201905092915050565b600082825260208201905092915050565b600082825260208201905092915050565b600082825260208201905092915050565b6000610e2a82610e31565b9050919050565b600073ffffffffffffffffffffffffffffffffffffffff82169050919050565b6000819050919050565b600060ff82169050919050565b82818337600083830152505050565b60005b83811015610e95578082015181840152602081019050610e7a565b83811115610ea4576000848401525b50505050565b6000601f19601f8301169050919050565b610ec481610e51565b8114610ecf57600080fd5b50565b610edb81610e5b565b8114610ee657600080fd5b5056fea365627a7a72315820b355b9fd1c2895b204c579beb8fc3d8edd7a08fbf56e04446f168c1514cb186f6c6578706572696d656e74616cf564736f6c63430005100040",
  "source": "// SPDX-License-Identifier: MIT\r\npragma solidity ^0.5.16;\r\npragma experimental ABIEncoderV2;\r\n\r\ncontract ReviewSystem {\r\n    struct Review {\r\n        uint256 serviceId;\r\n        address reviewer;\r\n        string comment;\r\n        uint8 rating; // 1 to 5\r\n    }\r\n\r\n    mapping(uint256 => Review[]) public reviews; // serviceId => list of reviews\r\n\r\n    event ReviewAdded(uint256 indexed serviceId, address indexed reviewer, string comment, uint8 rating);\r\n\r\n    // Function to add a review\r\n    function addReview(uint256 _serviceId, string memory _comment, uint8 _rating) public {\r\n        require(_rating >= 1 && _rating <= 5, \"Rating must be between 1 and 5\");\r\n        reviews[_serviceId].push(Review({\r\n            serviceId: _serviceId,\r\n            reviewer: msg.sender,\r\n            comment: _comment,\r\n            rating: _rating\r\n        }));\r\n        emit ReviewAdded(_serviceId, msg.sender, _comment, _rating);\r\n    }\r\n\r\n    // Function to get reviews for a specific service\r\n    function getReviews(uint256 _serviceId) public view returns (uint256[] memory, address[] memory, string[] memory, uint8[] memory) {\r\n        Review[] storage reviewList = reviews[_serviceId];\r\n        uint256 length = reviewList.length;\r\n\r\n        uint256[] memory serviceIds = new uint256[](length);\r\n        address[] memory reviewers = new address[](length);\r\n        string[] memory comments = new string[](length);\r\n        uint8[] memory ratings = new uint8[](length);\r\n\r\n        for (uint256 i = 0; i < length; i++) {\r\n            serviceIds[i] = reviewList[i].serviceId;\r\n            reviewers[i] = reviewList[i].reviewer;\r\n            comments[i] = reviewList[i].comment;\r\n            ratings[i] = reviewList[i].rating;\r\n        }\r\n\r\n        return (serviceIds, reviewers, comments, ratings);\r\n    }\r\n}",
  "sourcePath": "C:\\Users\\user\\Desktop\\TC\\starter_kit\\src\\contracts\\ReviewSystem.sol",
  "compiler": {
    "name": "solc",
    "version": "0.5.16+commit.9c3226ce.Emscripten.clang"
  },
  "schemaVersion": "3.4.16",
  "updatedAt": "2024-12-28T07:14:06.879Z",
  "networkType": "ethereum",
  "devdoc": {
    "methods": {}
  },
  "userdoc": {
    "methods": {}
  }
}