{
  "contractName": "SimpleNFT",
  "abi": [
    {
      "inputs": [],
      "payable": false,
      "stateMutability": "nonpayable",
      "type": "constructor"
    },
    {
      "anonymous": false,
      "inputs": [
        {
          "indexed": true,
          "internalType": "uint256",
          "name": "tokenId",
          "type": "uint256"
        },
        {
          "indexed": false,
          "internalType": "string",
          "name": "tokenURI",
          "type": "string"
        },
        {
          "indexed": true,
          "internalType": "address",
          "name": "owner",
          "type": "address"
        }
      ],
      "name": "NFTCreated",
      "type": "event"
    },
    {
      "anonymous": false,
      "inputs": [
        {
          "indexed": true,
          "internalType": "uint256",
          "name": "tokenId",
          "type": "uint256"
        },
        {
          "indexed": true,
          "internalType": "address",
          "name": "from",
          "type": "address"
        },
        {
          "indexed": true,
          "internalType": "address",
          "name": "to",
          "type": "address"
        }
      ],
      "name": "NFTTransferred",
      "type": "event"
    },
    {
      "constant": false,
      "inputs": [
        {
          "internalType": "string",
          "name": "_tokenURI",
          "type": "string"
        }
      ],
      "name": "mint",
      "outputs": [],
      "payable": false,
      "stateMutability": "nonpayable",
      "type": "function"
    },
    {
      "constant": false,
      "inputs": [
        {
          "internalType": "address",
          "name": "_to",
          "type": "address"
        },
        {
          "internalType": "uint256",
          "name": "_tokenId",
          "type": "uint256"
        }
      ],
      "name": "transfer",
      "outputs": [],
      "payable": false,
      "stateMutability": "nonpayable",
      "type": "function"
    },
    {
      "constant": true,
      "inputs": [
        {
          "internalType": "uint256",
          "name": "_tokenId",
          "type": "uint256"
        }
      ],
      "name": "tokenURI",
      "outputs": [
        {
          "internalType": "string",
          "name": "",
          "type": "string"
        }
      ],
      "payable": false,
      "stateMutability": "view",
      "type": "function"
    },
    {
      "constant": true,
      "inputs": [
        {
          "internalType": "address",
          "name": "_owner",
          "type": "address"
        }
      ],
      "name": "balanceOf",
      "outputs": [
        {
          "internalType": "uint256",
          "name": "",
          "type": "uint256"
        }
      ],
      "payable": false,
      "stateMutability": "view",
      "type": "function"
    },
    {
      "constant": true,
      "inputs": [
        {
          "internalType": "uint256",
          "name": "_tokenId",
          "type": "uint256"
        }
      ],
      "name": "ownerOf",
      "outputs": [
        {
          "internalType": "address",
          "name": "",
          "type": "address"
        }
      ],
      "payable": false,
      "stateMutability": "view",
      "type": "function"
    }
  ],
  "bytecode": "0x608060405234801561001057600080fd5b506001600381905550610cad806100286000396000f3fe608060405234801561001057600080fd5b50600436106100575760003560e01c80636352211e1461005c57806370a08231146100ca578063a9059cbb14610122578063c87b56dd14610170578063d85d3d2714610217575b600080fd5b6100886004803603602081101561007257600080fd5b81019080803590602001909291905050506102d2565b604051808273ffffffffffffffffffffffffffffffffffffffff1673ffffffffffffffffffffffffffffffffffffffff16815260200191505060405180910390f35b61010c600480360360208110156100e057600080fd5b81019080803573ffffffffffffffffffffffffffffffffffffffff16906020019092919050505061038c565b6040518082815260200191505060405180910390f35b61016e6004803603604081101561013857600080fd5b81019080803573ffffffffffffffffffffffffffffffffffffffff169060200190929190803590602001909291905050506103d5565b005b61019c6004803603602081101561018657600080fd5b8101908080359060200190929190505050610713565b6040518080602001828103825283818151815260200191508051906020019080838360005b838110156101dc5780820151818401526020810190506101c1565b50505050905090810190601f1680156102095780820380516001836020036101000a031916815260200191505b509250505060405180910390f35b6102d06004803603602081101561022d57600080fd5b810190808035906020019064010000000081111561024a57600080fd5b82018360208201111561025c57600080fd5b8035906020019184600183028401116401000000008311171561027e57600080fd5b91908080601f016020809104026020016040519081016040528093929190818152602001838380828437600081840152601f19601f820116905080830192505050505050509192919290505050610845565b005b60006102dd82610a82565b61034f576040517f08c379a00000000000000000000000000000000000000000000000000000000081526004018080602001828103825260128152602001807f4e465420646f6573206e6f74206578697374000000000000000000000000000081525060200191505060405180910390fd5b60008083815260200190815260200160002060020160009054906101000a900473ffffffffffffffffffffffffffffffffffffffff169050919050565b6000600260008373ffffffffffffffffffffffffffffffffffffffff1673ffffffffffffffffffffffffffffffffffffffff168152602001908152602001600020549050919050565b3373ffffffffffffffffffffffffffffffffffffffff1660008083815260200190815260200160002060020160009054906101000a900473ffffffffffffffffffffffffffffffffffffffff1673ffffffffffffffffffffffffffffffffffffffff16146104ab576040517f08c379a00000000000000000000000000000000000000000000000000000000081526004018080602001828103825260178152602001807f596f7520646f206e6f74206f776e2074686973204e465400000000000000000081525060200191505060405180910390fd5b600073ffffffffffffffffffffffffffffffffffffffff168273ffffffffffffffffffffffffffffffffffffffff16141561054e576040517f08c379a000000000000000000000000000000000000000000000000000000000815260040180806020018281038252600f8152602001807f496e76616c69642061646472657373000000000000000000000000000000000081525060200191505060405180910390fd5b8160008083815260200190815260200160002060020160006101000a81548173ffffffffffffffffffffffffffffffffffffffff021916908373ffffffffffffffffffffffffffffffffffffffff1602179055506105ac3382610af0565b600160008373ffffffffffffffffffffffffffffffffffffffff1673ffffffffffffffffffffffffffffffffffffffff168152602001908152602001600020819080600181540180825580915050906001820390600052602060002001600090919290919091505550600260008373ffffffffffffffffffffffffffffffffffffffff1673ffffffffffffffffffffffffffffffffffffffff16815260200190815260200160002060008154809291906001019190505550600260003373ffffffffffffffffffffffffffffffffffffffff1673ffffffffffffffffffffffffffffffffffffffff16815260200190815260200160002060008154809291906001900391905055508173ffffffffffffffffffffffffffffffffffffffff163373ffffffffffffffffffffffffffffffffffffffff16827f67043fac5fd2bf9edbb46ee495aaed7f97f91d43507d373be2b592af19b8c0a860405160405180910390a45050565b606061071e82610a82565b610790576040517f08c379a00000000000000000000000000000000000000000000000000000000081526004018080602001828103825260128152602001807f4e465420646f6573206e6f74206578697374000000000000000000000000000081525060200191505060405180910390fd5b6000808381526020019081526020016000206001018054600181600116156101000203166002900480601f0160208091040260200160405190810160405280929190818152602001828054600181600116156101000203166002900480156108395780601f1061080e57610100808354040283529160200191610839565b820191906000526020600020905b81548152906001019060200180831161081c57829003601f168201915b50505050509050919050565b6000600354905060405180606001604052808281526020018381526020013373ffffffffffffffffffffffffffffffffffffffff168152506000808381526020019081526020016000206000820151816000015560208201518160010190805190602001906108b5929190610bd3565b5060408201518160020160006101000a81548173ffffffffffffffffffffffffffffffffffffffff021916908373ffffffffffffffffffffffffffffffffffffffff160217905550905050600160003373ffffffffffffffffffffffffffffffffffffffff1673ffffffffffffffffffffffffffffffffffffffff168152602001908152602001600020819080600181540180825580915050906001820390600052602060002001600090919290919091505550600260003373ffffffffffffffffffffffffffffffffffffffff1673ffffffffffffffffffffffffffffffffffffffff168152602001908152602001600020600081548092919060010191905055506003600081548092919060010191905055503373ffffffffffffffffffffffffffffffffffffffff16817f60f5c4e765af6564b65d3e786669dd137f70417ac89c65a6358e9ee47647c09f846040518080602001828103825283818151815260200191508051906020019080838360005b83811015610a44578082015181840152602081019050610a29565b50505050905090810190601f168015610a715780820380516001836020036101000a031916815260200191505b509250505060405180910390a35050565b60008073ffffffffffffffffffffffffffffffffffffffff1660008084815260200190815260200160002060020160009054906101000a900473ffffffffffffffffffffffffffffffffffffffff1673ffffffffffffffffffffffffffffffffffffffff1614159050919050565b6000600160008473ffffffffffffffffffffffffffffffffffffffff1673ffffffffffffffffffffffffffffffffffffffff168152602001908152602001600020905060008090505b8180549050811015610bcd5782828281548110610b5257fe5b90600052602060002001541415610bc05781600183805490500381548110610b7657fe5b9060005260206000200154828281548110610b8d57fe5b906000526020600020018190555081805480610ba557fe5b60019003818190600052602060002001600090559055610bcd565b8080600101915050610b39565b50505050565b828054600181600116156101000203166002900490600052602060002090601f016020900481019282601f10610c1457805160ff1916838001178555610c42565b82800160010185558215610c42579182015b82811115610c41578251825591602001919060010190610c26565b5b509050610c4f9190610c53565b5090565b610c7591905b80821115610c71576000816000905550600101610c59565b5090565b9056fea265627a7a723158205a745167592f79b7d3ce7fd6d960c3cb5ebe887ac9ca4f888250d9f5c31c2b1d64736f6c63430005100032",
  "source": "\r\npragma solidity ^0.5.16;\r\n\r\ncontract SimpleNFT {\r\n    struct NFT {\r\n        uint256 id;\r\n        string tokenURI;\r\n        address owner;\r\n    }\r\n\r\n    // Mapping from token ID to NFT\r\n    mapping(uint256 => NFT) private nfts;\r\n    // Mapping from owner to their token IDs\r\n    mapping(address => uint256[]) private ownedTokens;\r\n    // Mapping to track the number of NFTs owned by an address\r\n    mapping(address => uint256) private ownedTokenCount;\r\n    // Counter for the next token ID\r\n    uint256 private nextTokenId;\r\n\r\n    event NFTCreated(uint256 indexed tokenId, string tokenURI, address indexed owner);\r\n    event NFTTransferred(uint256 indexed tokenId, address indexed from, address indexed to);\r\n\r\n    // Constructor\r\n    constructor() public {\r\n        nextTokenId = 1; // Start token IDs from 1\r\n    }\r\n\r\n    // Function to mint a new NFT\r\n    function mint(string memory _tokenURI) public {\r\n        uint256 tokenId = nextTokenId;\r\n        nfts[tokenId] = NFT(tokenId, _tokenURI, msg.sender);\r\n        ownedTokens[msg.sender].push(tokenId);\r\n        ownedTokenCount[msg.sender]++;\r\n        nextTokenId++;\r\n\r\n        emit NFTCreated(tokenId, _tokenURI, msg.sender);\r\n    }\r\n\r\n    // Function to transfer an NFT\r\n    function transfer(address _to, uint256 _tokenId) public {\r\n        require(nfts[_tokenId].owner == msg.sender, \"You do not own this NFT\");\r\n        require(_to != address(0), \"Invalid address\");\r\n\r\n        // Transfer the NFT\r\n        nfts[_tokenId].owner = _to;\r\n\r\n        // Update the ownedTokens mapping\r\n        _removeTokenFromOwner(msg.sender, _tokenId);\r\n        ownedTokens[_to].push(_tokenId);\r\n        ownedTokenCount[_to]++;\r\n        ownedTokenCount[msg.sender]--;\r\n\r\n        emit NFTTransferred(_tokenId, msg.sender, _to);\r\n    }\r\n\r\n    // Function to retrieve the token URI\r\n    function tokenURI(uint256 _tokenId) public view returns (string memory) {\r\n        require(_exists(_tokenId), \"NFT does not exist\");\r\n        return nfts[_tokenId].tokenURI;\r\n    }\r\n\r\n    // Internal function to check if an NFT exists\r\n    function _exists(uint256 _tokenId) internal view returns (bool) {\r\n        return nfts[_tokenId].owner != address(0);\r\n    }\r\n\r\n    // Internal function to remove a token from an owner's list\r\n    function _removeTokenFromOwner(address _owner, uint256 _tokenId) internal {\r\n        uint256[] storage tokens = ownedTokens[_owner];\r\n        for (uint256 i = 0; i < tokens.length; i++) {\r\n            if (tokens[i] == _tokenId) {\r\n                tokens[i] = tokens[tokens.length - 1]; // Replace with the last token\r\n                tokens.pop(); // Remove the last token\r\n                break;\r\n            }\r\n        }\r\n    }\r\n\r\n    // Function to get the number of NFTs owned by an address\r\n    function balanceOf(address _owner) public view returns (uint256) {\r\n        return ownedTokenCount[_owner];\r\n    }\r\n\r\n    // Function to get the owner of a specific NFT\r\n    function ownerOf(uint256 _tokenId) public view returns (address) {\r\n        require(_exists(_tokenId), \"NFT does not exist\");\r\n        return nfts[_tokenId].owner;\r\n    }\r\n}",
  "sourcePath": "C:\\Users\\user\\Desktop\\TC\\starter_kit\\src\\contracts\\SimpleNFT.sol",
  "compiler": {
    "name": "solc",
    "version": "0.5.16+commit.9c3226ce.Emscripten.clang"
  },
  "schemaVersion": "3.4.16",
  "updatedAt": "2024-12-28T07:14:06.884Z",
  "networkType": "ethereum",
  "devdoc": {
    "methods": {}
  },
  "userdoc": {
    "methods": {}
  }
}